{
  "_format": "hh-sol-artifact-1",
  "contractName": "MyEpicNFT",
  "sourceName": "contracts/MyEpicNFT.sol",
  "abi": [
    {
      "inputs": [],
      "stateMutability": "nonpayable",
      "type": "constructor"
    },
    {
      "anonymous": false,
      "inputs": [
        {
          "indexed": true,
          "internalType": "address",
          "name": "owner",
          "type": "address"
        },
        {
          "indexed": true,
          "internalType": "address",
          "name": "approved",
          "type": "address"
        },
        {
          "indexed": true,
          "internalType": "uint256",
          "name": "tokenId",
          "type": "uint256"
        }
      ],
      "name": "Approval",
      "type": "event"
    },
    {
      "anonymous": false,
      "inputs": [
        {
          "indexed": true,
          "internalType": "address",
          "name": "owner",
          "type": "address"
        },
        {
          "indexed": true,
          "internalType": "address",
          "name": "operator",
          "type": "address"
        },
        {
          "indexed": false,
          "internalType": "bool",
          "name": "approved",
          "type": "bool"
        }
      ],
      "name": "ApprovalForAll",
      "type": "event"
    },
    {
      "anonymous": false,
      "inputs": [
        {
          "indexed": false,
          "internalType": "address",
          "name": "sender",
          "type": "address"
        },
        {
          "indexed": false,
          "internalType": "uint256",
          "name": "tokenId",
          "type": "uint256"
        }
      ],
      "name": "NewEpicNFTMinted",
      "type": "event"
    },
    {
      "anonymous": false,
      "inputs": [
        {
          "indexed": true,
          "internalType": "address",
          "name": "from",
          "type": "address"
        },
        {
          "indexed": true,
          "internalType": "address",
          "name": "to",
          "type": "address"
        },
        {
          "indexed": true,
          "internalType": "uint256",
          "name": "tokenId",
          "type": "uint256"
        }
      ],
      "name": "Transfer",
      "type": "event"
    },
    {
      "inputs": [
        {
          "internalType": "address",
          "name": "to",
          "type": "address"
        },
        {
          "internalType": "uint256",
          "name": "tokenId",
          "type": "uint256"
        }
      ],
      "name": "approve",
      "outputs": [],
      "stateMutability": "nonpayable",
      "type": "function"
    },
    {
      "inputs": [
        {
          "internalType": "address",
          "name": "owner",
          "type": "address"
        }
      ],
      "name": "balanceOf",
      "outputs": [
        {
          "internalType": "uint256",
          "name": "",
          "type": "uint256"
        }
      ],
      "stateMutability": "view",
      "type": "function"
    },
    {
      "inputs": [
        {
          "internalType": "uint256",
          "name": "tokenId",
          "type": "uint256"
        }
      ],
      "name": "getApproved",
      "outputs": [
        {
          "internalType": "address",
          "name": "",
          "type": "address"
        }
      ],
      "stateMutability": "view",
      "type": "function"
    },
    {
      "inputs": [],
      "name": "getTotalNFTsMinted",
      "outputs": [
        {
          "internalType": "uint256",
          "name": "",
          "type": "uint256"
        }
      ],
      "stateMutability": "view",
      "type": "function"
    },
    {
      "inputs": [
        {
          "internalType": "address",
          "name": "owner",
          "type": "address"
        },
        {
          "internalType": "address",
          "name": "operator",
          "type": "address"
        }
      ],
      "name": "isApprovedForAll",
      "outputs": [
        {
          "internalType": "bool",
          "name": "",
          "type": "bool"
        }
      ],
      "stateMutability": "view",
      "type": "function"
    },
    {
      "inputs": [],
      "name": "makeAnEpicNFT",
      "outputs": [],
      "stateMutability": "nonpayable",
      "type": "function"
    },
    {
      "inputs": [],
      "name": "name",
      "outputs": [
        {
          "internalType": "string",
          "name": "",
          "type": "string"
        }
      ],
      "stateMutability": "view",
      "type": "function"
    },
    {
      "inputs": [
        {
          "internalType": "uint256",
          "name": "tokenId",
          "type": "uint256"
        }
      ],
      "name": "ownerOf",
      "outputs": [
        {
          "internalType": "address",
          "name": "",
          "type": "address"
        }
      ],
      "stateMutability": "view",
      "type": "function"
    },
    {
      "inputs": [
        {
          "internalType": "uint256",
          "name": "tokenId",
          "type": "uint256"
        }
      ],
      "name": "pickRandomColor",
      "outputs": [
        {
          "internalType": "string",
          "name": "",
          "type": "string"
        }
      ],
      "stateMutability": "view",
      "type": "function"
    },
    {
      "inputs": [
        {
          "internalType": "uint256",
          "name": "tokenId",
          "type": "uint256"
        }
      ],
      "name": "pickRandomFirstWord",
      "outputs": [
        {
          "internalType": "string",
          "name": "",
          "type": "string"
        }
      ],
      "stateMutability": "view",
      "type": "function"
    },
    {
      "inputs": [
        {
          "internalType": "uint256",
          "name": "tokenId",
          "type": "uint256"
        }
      ],
      "name": "pickRandomSecondWord",
      "outputs": [
        {
          "internalType": "string",
          "name": "",
          "type": "string"
        }
      ],
      "stateMutability": "view",
      "type": "function"
    },
    {
      "inputs": [
        {
          "internalType": "uint256",
          "name": "tokenId",
          "type": "uint256"
        }
      ],
      "name": "pickRandomThirdWord",
      "outputs": [
        {
          "internalType": "string",
          "name": "",
          "type": "string"
        }
      ],
      "stateMutability": "view",
      "type": "function"
    },
    {
      "inputs": [
        {
          "internalType": "address",
          "name": "from",
          "type": "address"
        },
        {
          "internalType": "address",
          "name": "to",
          "type": "address"
        },
        {
          "internalType": "uint256",
          "name": "tokenId",
          "type": "uint256"
        }
      ],
      "name": "safeTransferFrom",
      "outputs": [],
      "stateMutability": "nonpayable",
      "type": "function"
    },
    {
      "inputs": [
        {
          "internalType": "address",
          "name": "from",
          "type": "address"
        },
        {
          "internalType": "address",
          "name": "to",
          "type": "address"
        },
        {
          "internalType": "uint256",
          "name": "tokenId",
          "type": "uint256"
        },
        {
          "internalType": "bytes",
          "name": "_data",
          "type": "bytes"
        }
      ],
      "name": "safeTransferFrom",
      "outputs": [],
      "stateMutability": "nonpayable",
      "type": "function"
    },
    {
      "inputs": [
        {
          "internalType": "address",
          "name": "operator",
          "type": "address"
        },
        {
          "internalType": "bool",
          "name": "approved",
          "type": "bool"
        }
      ],
      "name": "setApprovalForAll",
      "outputs": [],
      "stateMutability": "nonpayable",
      "type": "function"
    },
    {
      "inputs": [
        {
          "internalType": "bytes4",
          "name": "interfaceId",
          "type": "bytes4"
        }
      ],
      "name": "supportsInterface",
      "outputs": [
        {
          "internalType": "bool",
          "name": "",
          "type": "bool"
        }
      ],
      "stateMutability": "view",
      "type": "function"
    },
    {
      "inputs": [],
      "name": "symbol",
      "outputs": [
        {
          "internalType": "string",
          "name": "",
          "type": "string"
        }
      ],
      "stateMutability": "view",
      "type": "function"
    },
    {
      "inputs": [
        {
          "internalType": "uint256",
          "name": "tokenId",
          "type": "uint256"
        }
      ],
      "name": "tokenURI",
      "outputs": [
        {
          "internalType": "string",
          "name": "",
          "type": "string"
        }
      ],
      "stateMutability": "view",
      "type": "function"
    },
    {
      "inputs": [
        {
          "internalType": "address",
          "name": "from",
          "type": "address"
        },
        {
          "internalType": "address",
          "name": "to",
          "type": "address"
        },
        {
          "internalType": "uint256",
          "name": "tokenId",
          "type": "uint256"
        }
      ],
      "name": "transferFrom",
      "outputs": [],
      "stateMutability": "nonpayable",
      "type": "function"
    }
  ],
  "bytecode": "0x608060405260405180610160016040528061012f815260200162004dae61012f9139600890805190602001906200003892919062000e9d565b5060405180610100016040528060d3815260200162004edd60d39139600990805190602001906200006b92919062000e9d565b5060405180608001604052806056815260200162004fb060569139600a90805190602001906200009d92919062000e9d565b506040518060c001604052806040518060400160405280600581526020017f626c61636b00000000000000000000000000000000000000000000000000000081525081526020016040518060400160405280600781526020017f233064313131360000000000000000000000000000000000000000000000000081525081526020016040518060400160405280600481526020017f677261790000000000000000000000000000000000000000000000000000000081525081526020016040518060400160405280601081526020017f7267622834362c2038302c20313231290000000000000000000000000000000081525081526020016040518060400160405280600781526020017f233439373862310000000000000000000000000000000000000000000000000081525081526020016040518060400160405280600781526020017f2330343133323500000000000000000000000000000000000000000000000000815250815250600b9060066200021b92919062000f2e565b50604051806101e001604052806040518060400160405280600381526020017f536972000000000000000000000000000000000000000000000000000000000081525081526020016040518060400160405280600481526020017f4c6f72640000000000000000000000000000000000000000000000000000000081525081526020016040518060400160405280600481526020017f4d6973730000000000000000000000000000000000000000000000000000000081525081526020016040518060400160405280600481526020017f4b696e670000000000000000000000000000000000000000000000000000000081525081526020016040518060400160405280600681526020017f5072696e6365000000000000000000000000000000000000000000000000000081525081526020016040518060400160405280600581526020017f526f79616c00000000000000000000000000000000000000000000000000000081525081526020016040518060400160405280600381526020017f426967000000000000000000000000000000000000000000000000000000000081525081526020016040518060400160405280600381526020017f466174000000000000000000000000000000000000000000000000000000000081525081526020016040518060400160405280600681526020017f536e65616b79000000000000000000000000000000000000000000000000000081525081526020016040518060400160405280600581526020017f517569636b00000000000000000000000000000000000000000000000000000081525081526020016040518060400160405280600481526020017f4c6f75640000000000000000000000000000000000000000000000000000000081525081526020016040518060400160405280600581526020017f50726f756400000000000000000000000000000000000000000000000000000081525081526020016040518060400160405280600781526020017f576f72726965640000000000000000000000000000000000000000000000000081525081526020016040518060400160405280600681526020017f53696c656e74000000000000000000000000000000000000000000000000000081525081526020016040518060400160405280600981526020017f446966666572656e740000000000000000000000000000000000000000000000815250815250600c90600f620005ad92919062000f95565b50604051806101e001604052806040518060400160405280600781526020017f47686f73746c790000000000000000000000000000000000000000000000000081525081526020016040518060400160405280600781526020017f48616d737465720000000000000000000000000000000000000000000000000081525081526020016040518060400160405280600681526020017f5374696e6b79000000000000000000000000000000000000000000000000000081525081526020016040518060400160405280600581526020017f537765657400000000000000000000000000000000000000000000000000000081525081526020016040518060400160405280600581526020017f566976696400000000000000000000000000000000000000000000000000000081525081526020016040518060400160405280600981526020017f4f757473706f6b656e000000000000000000000000000000000000000000000081525081526020016040518060400160405280600b81526020017f457874726f76657274656400000000000000000000000000000000000000000081525081526020016040518060400160405280600b81526020017f496e74726176657274656400000000000000000000000000000000000000000081525081526020016040518060400160405280600a81526020017f44657370696361626c650000000000000000000000000000000000000000000081525081526020016040518060400160405280600881526020017f42726f6f64696e6700000000000000000000000000000000000000000000000081525081526020016040518060400160405280600681526020017f4865726f6963000000000000000000000000000000000000000000000000000081525081526020016040518060400160405280600a81526020017f50686f746f67656e69630000000000000000000000000000000000000000000081525081526020016040518060400160405280600981526020017f496e73706972696e67000000000000000000000000000000000000000000000081525081526020016040518060400160405280600781526020017f486f61726465720000000000000000000000000000000000000000000000000081525081526020016040518060400160405280600481526020017f426c756500000000000000000000000000000000000000000000000000000000815250815250600d90600f6200093f92919062000f95565b50604051806101e001604052806040518060400160405280600781526020017f48616d737465720000000000000000000000000000000000000000000000000081525081526020016040518060400160405280600381526020017f506967000000000000000000000000000000000000000000000000000000000081525081526020016040518060400160405280600381526020017f446f67000000000000000000000000000000000000000000000000000000000081525081526020016040518060400160405280600581526020017f536869626100000000000000000000000000000000000000000000000000000081525081526020016040518060400160405280600581526020017f566164657200000000000000000000000000000000000000000000000000000081525081526020016040518060400160405280600481526020017f596f64610000000000000000000000000000000000000000000000000000000081525081526020016040518060400160405280600881526020017f437563756d62657200000000000000000000000000000000000000000000000081525081526020016040518060400160405280600381526020017f417065000000000000000000000000000000000000000000000000000000000081525081526020016040518060400160405280600781526020017f476f72696c6c610000000000000000000000000000000000000000000000000081525081526020016040518060400160405280600681526020017f5065616e7574000000000000000000000000000000000000000000000000000081525081526020016040518060400160405280600481526020017f426f6f6b0000000000000000000000000000000000000000000000000000000081525081526020016040518060400160405280600581526020017f47686f737400000000000000000000000000000000000000000000000000000081525081526020016040518060400160405280600481526020017f467265640000000000000000000000000000000000000000000000000000000081525081526020016040518060400160405280600581526020017f53616e746100000000000000000000000000000000000000000000000000000081525081526020016040518060400160405280600681526020017f447261676f6e0000000000000000000000000000000000000000000000000000815250815250600e90600f62000cd192919062000f95565b5034801562000cdf57600080fd5b506040518060400160405280600b81526020017f546865426c61636b426f780000000000000000000000000000000000000000008152506040518060400160405280600881526020017f426c61636b426f78000000000000000000000000000000000000000000000000815250816000908051906020019062000d6492919062000e9d565b50806001908051906020019062000d7d92919062000e9d565b50505062000dcb6040518060400160405280601e81526020017f54686973206973206d79204e465420636f6e74726163742e20576f616821000081525062000dd160201b620012d81760201c565b620011b6565b62000e718160405160240162000de89190620010ca565b6040516020818303038152906040527f41304fac000000000000000000000000000000000000000000000000000000007bffffffffffffffffffffffffffffffffffffffffffffffffffffffff19166020820180517bffffffffffffffffffffffffffffffffffffffffffffffffffffffff838183161783525050505062000e7460201b60201c565b50565b60008151905060006a636f6e736f6c652e6c6f679050602083016000808483855afa5050505050565b82805462000eab9062001140565b90600052602060002090601f01602090048101928262000ecf576000855562000f1b565b82601f1062000eea57805160ff191683800117855562000f1b565b8280016001018555821562000f1b579182015b8281111562000f1a57825182559160200191906001019062000efd565b5b50905062000f2a919062000ffc565b5090565b82805482825590600052602060002090810192821562000f82579160200282015b8281111562000f8157825182908051906020019062000f7092919062000e9d565b509160200191906001019062000f4f565b5b50905062000f9191906200101b565b5090565b82805482825590600052602060002090810192821562000fe9579160200282015b8281111562000fe857825182908051906020019062000fd792919062000e9d565b509160200191906001019062000fb6565b5b50905062000ff891906200101b565b5090565b5b808211156200101757600081600090555060010162000ffd565b5090565b5b808211156200103f576000818162001035919062001043565b506001016200101c565b5090565b508054620010519062001140565b6000825580601f1062001065575062001086565b601f01602090049060005260206000209081019062001085919062000ffc565b5b50565b60006200109682620010ee565b620010a28185620010f9565b9350620010b48185602086016200110a565b620010bf81620011a5565b840191505092915050565b60006020820190508181036000830152620010e6818462001089565b905092915050565b600081519050919050565b600082825260208201905092915050565b60005b838110156200112a5780820151818401526020810190506200110d565b838111156200113a576000848401525b50505050565b600060028204905060018216806200115957607f821691505b6020821081141562001170576200116f62001176565b5b50919050565b7f4e487b7100000000000000000000000000000000000000000000000000000000600052602260045260246000fd5b6000601f19601f8301169050919050565b613be880620011c66000396000f3fe608060405234801561001057600080fd5b50600436106101215760003560e01c806370a08231116100ad578063b88d4fde11610071578063b88d4fde14610340578063c575757a1461035c578063c87b56dd1461038c578063de9d132f146103bc578063e985e9c5146103c657610121565b806370a082311461028857806395d89b41146102b8578063a22cb465146102d6578063b187301f146102f2578063b4c3b8be1461032257610121565b806323b872dd116100f457806323b872dd146101c05780632de38d68146101dc57806342842e0e1461020c578063514dc8c6146102285780636352211e1461025857610121565b806301ffc9a71461012657806306fdde0314610156578063081812fc14610174578063095ea7b3146101a4575b600080fd5b610140600480360381019061013b91906126d8565b6103f6565b60405161014d919061343e565b60405180910390f35b61015e6104d8565b60405161016b9190613459565b60405180910390f35b61018e6004803603810190610189919061272a565b61056a565b60405161019b91906133ae565b60405180910390f35b6101be60048036038101906101b9919061269c565b6105ef565b005b6101da60048036038101906101d59190612596565b610707565b005b6101f660048036038101906101f1919061272a565b610767565b6040516102039190613459565b60405180910390f35b61022660048036038101906102219190612596565b610885565b005b610242600480360381019061023d919061272a565b6108a5565b60405161024f9190613459565b60405180910390f35b610272600480360381019061026d919061272a565b6109c3565b60405161027f91906133ae565b60405180910390f35b6102a2600480360381019061029d9190612531565b610a75565b6040516102af91906136d9565b60405180910390f35b6102c0610b2d565b6040516102cd9190613459565b60405180910390f35b6102f060048036038101906102eb9190612660565b610bbf565b005b61030c6004803603810190610307919061272a565b610bd5565b6040516103199190613459565b60405180910390f35b61032a610cf3565b60405161033791906136d9565b60405180910390f35b61035a600480360381019061035591906125e5565b610d09565b005b6103766004803603810190610371919061272a565b610d6b565b6040516103839190613459565b60405180910390f35b6103a660048036038101906103a1919061272a565b610e89565b6040516103b39190613459565b60405180910390f35b6103c4610fdb565b005b6103e060048036038101906103db919061255a565b611244565b6040516103ed919061343e565b60405180910390f35b60007f80ac58cd000000000000000000000000000000000000000000000000000000007bffffffffffffffffffffffffffffffffffffffffffffffffffffffff1916827bffffffffffffffffffffffffffffffffffffffffffffffffffffffff191614806104c157507f5b5e139f000000000000000000000000000000000000000000000000000000007bffffffffffffffffffffffffffffffffffffffffffffffffffffffff1916827bffffffffffffffffffffffffffffffffffffffffffffffffffffffff1916145b806104d157506104d082611371565b5b9050919050565b6060600080546104e790613978565b80601f016020809104026020016040519081016040528092919081815260200182805461051390613978565b80156105605780601f1061053557610100808354040283529160200191610560565b820191906000526020600020905b81548152906001019060200180831161054357829003601f168201915b5050505050905090565b6000610575826113db565b6105b4576040517f08c379a00000000000000000000000000000000000000000000000000000000081526004016105ab90613639565b60405180910390fd5b6004600083815260200190815260200160002060009054906101000a900473ffffffffffffffffffffffffffffffffffffffff169050919050565b60006105fa826109c3565b90508073ffffffffffffffffffffffffffffffffffffffff168373ffffffffffffffffffffffffffffffffffffffff16141561066b576040517f08c379a000000000000000000000000000000000000000000000000000000000815260040161066290613699565b60405180910390fd5b8073ffffffffffffffffffffffffffffffffffffffff1661068a611447565b73ffffffffffffffffffffffffffffffffffffffff1614806106b957506106b8816106b3611447565b611244565b5b6106f8576040517f08c379a00000000000000000000000000000000000000000000000000000000081526004016106ef90613559565b60405180910390fd5b610702838361144f565b505050565b610718610712611447565b82611508565b610757576040517f08c379a000000000000000000000000000000000000000000000000000000000815260040161074e906136b9565b60405180910390fd5b6107628383836115e6565b505050565b6060600061079b61077784611842565b6040516020016107879190613348565b6040516020818303038152906040526119ef565b9050600c80549050816107ae91906139f3565b9050600c81815481106107ea577f4e487b7100000000000000000000000000000000000000000000000000000000600052603260045260246000fd5b9060005260206000200180546107ff90613978565b80601f016020809104026020016040519081016040528092919081815260200182805461082b90613978565b80156108785780601f1061084d57610100808354040283529160200191610878565b820191906000526020600020905b81548152906001019060200180831161085b57829003601f168201915b5050505050915050919050565b6108a083838360405180602001604052806000815250610d09565b505050565b606060006108d96108b584611842565b6040516020016108c5919061338c565b6040516020818303038152906040526119ef565b9050600b80549050816108ec91906139f3565b9050600b8181548110610928577f4e487b7100000000000000000000000000000000000000000000000000000000600052603260045260246000fd5b90600052602060002001805461093d90613978565b80601f016020809104026020016040519081016040528092919081815260200182805461096990613978565b80156109b65780601f1061098b576101008083540402835291602001916109b6565b820191906000526020600020905b81548152906001019060200180831161099957829003601f168201915b5050505050915050919050565b6000806002600084815260200190815260200160002060009054906101000a900473ffffffffffffffffffffffffffffffffffffffff169050600073ffffffffffffffffffffffffffffffffffffffff168173ffffffffffffffffffffffffffffffffffffffff161415610a6c576040517f08c379a0000000000000000000000000000000000000000000000000000000008152600401610a6390613599565b60405180910390fd5b80915050919050565b60008073ffffffffffffffffffffffffffffffffffffffff168273ffffffffffffffffffffffffffffffffffffffff161415610ae6576040517f08c379a0000000000000000000000000000000000000000000000000000000008152600401610add90613579565b60405180910390fd5b600360008373ffffffffffffffffffffffffffffffffffffffff1673ffffffffffffffffffffffffffffffffffffffff168152602001908152602001600020549050919050565b606060018054610b3c90613978565b80601f0160208091040260200160405190810160405280929190818152602001828054610b6890613978565b8015610bb55780601f10610b8a57610100808354040283529160200191610bb5565b820191906000526020600020905b815481529060010190602001808311610b9857829003601f168201915b5050505050905090565b610bd1610bca611447565b8383611a22565b5050565b60606000610c09610be584611842565b604051602001610bf591906132e1565b6040516020818303038152906040526119ef565b9050600d8054905081610c1c91906139f3565b9050600d8181548110610c58577f4e487b7100000000000000000000000000000000000000000000000000000000600052603260045260246000fd5b906000526020600020018054610c6d90613978565b80601f0160208091040260200160405190810160405280929190818152602001828054610c9990613978565b8015610ce65780601f10610cbb57610100808354040283529160200191610ce6565b820191906000526020600020905b815481529060010190602001808311610cc957829003601f168201915b5050505050915050919050565b600080610d006007611b8f565b90508091505090565b610d1a610d14611447565b83611508565b610d59576040517f08c379a0000000000000000000000000000000000000000000000000000000008152600401610d50906136b9565b60405180910390fd5b610d6584848484611b9d565b50505050565b60606000610d9f610d7b84611842565b604051602001610d8b91906132bf565b6040516020818303038152906040526119ef565b9050600e8054905081610db291906139f3565b9050600e8181548110610dee577f4e487b7100000000000000000000000000000000000000000000000000000000600052603260045260246000fd5b906000526020600020018054610e0390613978565b80601f0160208091040260200160405190810160405280929190818152602001828054610e2f90613978565b8015610e7c5780601f10610e5157610100808354040283529160200191610e7c565b820191906000526020600020905b815481529060010190602001808311610e5f57829003601f168201915b5050505050915050919050565b6060610e94826113db565b610ed3576040517f08c379a0000000000000000000000000000000000000000000000000000000008152600401610eca90613619565b60405180910390fd5b6000600660008481526020019081526020016000208054610ef390613978565b80601f0160208091040260200160405190810160405280929190818152602001828054610f1f90613978565b8015610f6c5780601f10610f4157610100808354040283529160200191610f6c565b820191906000526020600020905b815481529060010190602001808311610f4f57829003601f168201915b505050505090506000610f7d611bf9565b9050600081511415610f93578192505050610fd6565b600082511115610fc8578082604051602001610fb09291906131ff565b60405160208183030381529060405292505050610fd6565b610fd184611c10565b925050505b919050565b6000610fe76007611b8f565b90506032600182610ff891906137ad565b1115611039576040517f08c379a0000000000000000000000000000000000000000000000000000000008152600401611030906135d9565b60405180910390fd5b600061104482610767565b9050600061105183610bd5565b9050600061105e84610d6b565b9050600083838360405160200161107793929190613223565b60405160208183030381529060405290506000611093866108a5565b90506000600982600a856040516020016110b09493929190613254565b604051602081830303815290604052905060006110f5846110d084611cb7565b6040516020016110e1929190613303565b604051602081830303815290604052611cb7565b905060008160405160200161110a919061336a565b60405160208183030381529060405290506111596040518060400160405280601581526020017f0a2d2d2d2d2d2d2d2d2d2d2d2d2d2d2d2d2d2d2d2d00000000000000000000008152506112d8565b6111818160405160200161116d919061329d565b6040516020818303038152906040526112d8565b6111bf6040518060400160405280601581526020017f2d2d2d2d2d2d2d2d2d2d2d2d2d2d2d2d2d2d2d2d0a00000000000000000000008152506112d8565b6111c9338a611e75565b6111d38982611e93565b6111dd6007611f07565b611200604051806060016040528060258152602001613b4e602591398a33611f1d565b7febb98688741ffa4c7589bf325de30cf7becb63de567842e1ccdb6cb949fdc82c338a604051611231929190613415565b60405180910390a1505050505050505050565b6000600560008473ffffffffffffffffffffffffffffffffffffffff1673ffffffffffffffffffffffffffffffffffffffff16815260200190815260200160002060008373ffffffffffffffffffffffffffffffffffffffff1673ffffffffffffffffffffffffffffffffffffffff16815260200190815260200160002060009054906101000a900460ff16905092915050565b61136e816040516024016112ec9190613459565b6040516020818303038152906040527f41304fac000000000000000000000000000000000000000000000000000000007bffffffffffffffffffffffffffffffffffffffffffffffffffffffff19166020820180517bffffffffffffffffffffffffffffffffffffffffffffffffffffffff8381831617835250505050611fbc565b50565b60007f01ffc9a7000000000000000000000000000000000000000000000000000000007bffffffffffffffffffffffffffffffffffffffffffffffffffffffff1916827bffffffffffffffffffffffffffffffffffffffffffffffffffffffff1916149050919050565b60008073ffffffffffffffffffffffffffffffffffffffff166002600084815260200190815260200160002060009054906101000a900473ffffffffffffffffffffffffffffffffffffffff1673ffffffffffffffffffffffffffffffffffffffff1614159050919050565b600033905090565b816004600083815260200190815260200160002060006101000a81548173ffffffffffffffffffffffffffffffffffffffff021916908373ffffffffffffffffffffffffffffffffffffffff160217905550808273ffffffffffffffffffffffffffffffffffffffff166114c2836109c3565b73ffffffffffffffffffffffffffffffffffffffff167f8c5be1e5ebec7d5bd14f71427d1e84f3dd0314c0f7b2291e5b200ac8c7c3b92560405160405180910390a45050565b6000611513826113db565b611552576040517f08c379a000000000000000000000000000000000000000000000000000000000815260040161154990613539565b60405180910390fd5b600061155d836109c3565b90508073ffffffffffffffffffffffffffffffffffffffff168473ffffffffffffffffffffffffffffffffffffffff1614806115cc57508373ffffffffffffffffffffffffffffffffffffffff166115b48461056a565b73ffffffffffffffffffffffffffffffffffffffff16145b806115dd57506115dc8185611244565b5b91505092915050565b8273ffffffffffffffffffffffffffffffffffffffff16611606826109c3565b73ffffffffffffffffffffffffffffffffffffffff161461165c576040517f08c379a000000000000000000000000000000000000000000000000000000000815260040161165390613659565b60405180910390fd5b600073ffffffffffffffffffffffffffffffffffffffff168273ffffffffffffffffffffffffffffffffffffffff1614156116cc576040517f08c379a00000000000000000000000000000000000000000000000000000000081526004016116c3906134f9565b60405180910390fd5b6116d7838383611fe5565b6116e260008261144f565b6001600360008573ffffffffffffffffffffffffffffffffffffffff1673ffffffffffffffffffffffffffffffffffffffff1681526020019081526020016000206000828254611732919061388e565b925050819055506001600360008473ffffffffffffffffffffffffffffffffffffffff1673ffffffffffffffffffffffffffffffffffffffff168152602001908152602001600020600082825461178991906137ad565b92505081905550816002600083815260200190815260200160002060006101000a81548173ffffffffffffffffffffffffffffffffffffffff021916908373ffffffffffffffffffffffffffffffffffffffff160217905550808273ffffffffffffffffffffffffffffffffffffffff168473ffffffffffffffffffffffffffffffffffffffff167fddf252ad1be2c89b69c2b068fc378daa952ba7f163c4a11628f55a4df523b3ef60405160405180910390a4505050565b6060600082141561188a576040518060400160405280600181526020017f300000000000000000000000000000000000000000000000000000000000000081525090506119ea565b600082905060005b600082146118bc5780806118a5906139aa565b915050600a826118b59190613803565b9150611892565b60008167ffffffffffffffff8111156118fe577f4e487b7100000000000000000000000000000000000000000000000000000000600052604160045260246000fd5b6040519080825280601f01601f1916602001820160405280156119305781602001600182028036833780820191505090505b5090505b600085146119e357600182611949919061388e565b9150600a8561195891906139f3565b603061196491906137ad565b60f81b8183815181106119a0577f4e487b7100000000000000000000000000000000000000000000000000000000600052603260045260246000fd5b60200101907effffffffffffffffffffffffffffffffffffffffffffffffffffffffffffff1916908160001a905350600a856119dc9190613803565b9450611934565b8093505050505b919050565b600081604051602001611a0291906131e8565b6040516020818303038152906040528051906020012060001c9050919050565b8173ffffffffffffffffffffffffffffffffffffffff168373ffffffffffffffffffffffffffffffffffffffff161415611a91576040517f08c379a0000000000000000000000000000000000000000000000000000000008152600401611a8890613519565b60405180910390fd5b80600560008573ffffffffffffffffffffffffffffffffffffffff1673ffffffffffffffffffffffffffffffffffffffff16815260200190815260200160002060008473ffffffffffffffffffffffffffffffffffffffff1673ffffffffffffffffffffffffffffffffffffffff16815260200190815260200160002060006101000a81548160ff0219169083151502179055508173ffffffffffffffffffffffffffffffffffffffff168373ffffffffffffffffffffffffffffffffffffffff167f17307eab39ab6107e8899845ad3d59bd9653f200f220920489ca2b5937696c3183604051611b82919061343e565b60405180910390a3505050565b600081600001549050919050565b611ba88484846115e6565b611bb484848484611fea565b611bf3576040517f08c379a0000000000000000000000000000000000000000000000000000000008152600401611bea906134b9565b60405180910390fd5b50505050565b606060405180602001604052806000815250905090565b6060611c1b826113db565b611c5a576040517f08c379a0000000000000000000000000000000000000000000000000000000008152600401611c5190613679565b60405180910390fd5b6000611c64611bf9565b90506000815111611c845760405180602001604052806000815250611caf565b80611c8e84611842565b604051602001611c9f9291906131ff565b6040516020818303038152906040525b915050919050565b60606000825190506000811415611ce05760405180602001604052806000815250915050611e70565b60006003600283611cf191906137ad565b611cfb9190613803565b6004611d079190613834565b90506000602082611d1891906137ad565b67ffffffffffffffff811115611d57577f4e487b7100000000000000000000000000000000000000000000000000000000600052604160045260246000fd5b6040519080825280601f01601f191660200182016040528015611d895781602001600182028036833780820191505090505b5090506000604051806060016040528060408152602001613b73604091399050600181016020830160005b86811015611e2d5760038101905062ffffff818a015116603f8160121c168401518060081b905060ff603f83600c1c1686015116810190508060081b905060ff603f8360061c1686015116810190508060081b905060ff603f831686015116810190508060e01b90508084526004840193505050611db4565b506003860660018114611e475760028114611e5757611e62565b613d3d60f01b6002830352611e62565b603d60f81b60018303525b508484525050819450505050505b919050565b611e8f828260405180602001604052806000815250612181565b5050565b611e9c826113db565b611edb576040517f08c379a0000000000000000000000000000000000000000000000000000000008152600401611ed2906135b9565b60405180910390fd5b80600660008481526020019081526020016000209080519060200190611f029291906123bd565b505050565b6001816000016000828254019250508190555050565b611fb7838383604051602401611f359392919061347b565b6040516020818303038152906040527fe3849f79000000000000000000000000000000000000000000000000000000007bffffffffffffffffffffffffffffffffffffffffffffffffffffffff19166020820180517bffffffffffffffffffffffffffffffffffffffffffffffffffffffff8381831617835250505050611fbc565b505050565b60008151905060006a636f6e736f6c652e6c6f679050602083016000808483855afa5050505050565b505050565b600061200b8473ffffffffffffffffffffffffffffffffffffffff166121dc565b15612174578373ffffffffffffffffffffffffffffffffffffffff1663150b7a02612034611447565b8786866040518563ffffffff1660e01b815260040161205694939291906133c9565b602060405180830381600087803b15801561207057600080fd5b505af19250505080156120a157506040513d601f19601f8201168201806040525081019061209e9190612701565b60015b612124573d80600081146120d1576040519150601f19603f3d011682016040523d82523d6000602084013e6120d6565b606091505b5060008151141561211c576040517f08c379a0000000000000000000000000000000000000000000000000000000008152600401612113906134b9565b60405180910390fd5b805181602001fd5b63150b7a0260e01b7bffffffffffffffffffffffffffffffffffffffffffffffffffffffff1916817bffffffffffffffffffffffffffffffffffffffffffffffffffffffff191614915050612179565b600190505b949350505050565b61218b83836121ef565b6121986000848484611fea565b6121d7576040517f08c379a00000000000000000000000000000000000000000000000000000000081526004016121ce906134b9565b60405180910390fd5b505050565b600080823b905060008111915050919050565b600073ffffffffffffffffffffffffffffffffffffffff168273ffffffffffffffffffffffffffffffffffffffff16141561225f576040517f08c379a0000000000000000000000000000000000000000000000000000000008152600401612256906135f9565b60405180910390fd5b612268816113db565b156122a8576040517f08c379a000000000000000000000000000000000000000000000000000000000815260040161229f906134d9565b60405180910390fd5b6122b460008383611fe5565b6001600360008473ffffffffffffffffffffffffffffffffffffffff1673ffffffffffffffffffffffffffffffffffffffff168152602001908152602001600020600082825461230491906137ad565b92505081905550816002600083815260200190815260200160002060006101000a81548173ffffffffffffffffffffffffffffffffffffffff021916908373ffffffffffffffffffffffffffffffffffffffff160217905550808273ffffffffffffffffffffffffffffffffffffffff16600073ffffffffffffffffffffffffffffffffffffffff167fddf252ad1be2c89b69c2b068fc378daa952ba7f163c4a11628f55a4df523b3ef60405160405180910390a45050565b8280546123c990613978565b90600052602060002090601f0160209004810192826123eb5760008555612432565b82601f1061240457805160ff1916838001178555612432565b82800160010185558215612432579182015b82811115612431578251825591602001919060010190612416565b5b50905061243f9190612443565b5090565b5b8082111561245c576000816000905550600101612444565b5090565b600061247361246e84613725565b6136f4565b90508281526020810184848401111561248b57600080fd5b612496848285613936565b509392505050565b6000813590506124ad81613af1565b92915050565b6000813590506124c281613b08565b92915050565b6000813590506124d781613b1f565b92915050565b6000815190506124ec81613b1f565b92915050565b600082601f83011261250357600080fd5b8135612513848260208601612460565b91505092915050565b60008135905061252b81613b36565b92915050565b60006020828403121561254357600080fd5b60006125518482850161249e565b91505092915050565b6000806040838503121561256d57600080fd5b600061257b8582860161249e565b925050602061258c8582860161249e565b9150509250929050565b6000806000606084860312156125ab57600080fd5b60006125b98682870161249e565b93505060206125ca8682870161249e565b92505060406125db8682870161251c565b9150509250925092565b600080600080608085870312156125fb57600080fd5b60006126098782880161249e565b945050602061261a8782880161249e565b935050604061262b8782880161251c565b925050606085013567ffffffffffffffff81111561264857600080fd5b612654878288016124f2565b91505092959194509250565b6000806040838503121561267357600080fd5b60006126818582860161249e565b9250506020612692858286016124b3565b9150509250929050565b600080604083850312156126af57600080fd5b60006126bd8582860161249e565b92505060206126ce8582860161251c565b9150509250929050565b6000602082840312156126ea57600080fd5b60006126f8848285016124c8565b91505092915050565b60006020828403121561271357600080fd5b6000612721848285016124dd565b91505092915050565b60006020828403121561273c57600080fd5b600061274a8482850161251c565b91505092915050565b61275c816138c2565b82525050565b61276b816138d4565b82525050565b600061277c8261376a565b6127868185613780565b9350612796818560208601613945565b61279f81613ae0565b840191505092915050565b60006127b582613775565b6127bf8185613791565b93506127cf818560208601613945565b6127d881613ae0565b840191505092915050565b60006127ee82613775565b6127f881856137a2565b9350612808818560208601613945565b80840191505092915050565b6000815461282181613978565b61282b81866137a2565b9450600182166000811461284657600181146128575761288a565b60ff1983168652818601935061288a565b61286085613755565b60005b8381101561288257815481890152600182019150602081019050612863565b838801955050505b50505092915050565b60006128a06025836137a2565b91507f68747470733a2f2f6e6674707265766965772e30786465762e636f6465732f3f60008301527f636f64653d0000000000000000000000000000000000000000000000000000006020830152602582019050919050565b6000612906603283613791565b91507f4552433732313a207472616e7366657220746f206e6f6e20455243373231526560008301527f63656976657220696d706c656d656e74657200000000000000000000000000006020830152604082019050919050565b600061296c601c83613791565b91507f4552433732313a20746f6b656e20616c7265616479206d696e746564000000006000830152602082019050919050565b60006129ac600a836137a2565b91507f54484952445f574f5244000000000000000000000000000000000000000000006000830152600a82019050919050565b60006129ec602483613791565b91507f4552433732313a207472616e7366657220746f20746865207a65726f2061646460008301527f72657373000000000000000000000000000000000000000000000000000000006020830152604082019050919050565b6000612a52601983613791565b91507f4552433732313a20617070726f766520746f2063616c6c6572000000000000006000830152602082019050919050565b6000612a926063836137a2565b91507f222c20226465736372697074696f6e223a20224120686967686c79206163636c60008301527f61696d656420636f6c6c656374696f6e206f6620737175617265732e222c202260208301527f696d616765223a2022646174613a696d6167652f7376672b786d6c3b6261736560408301527f36342c00000000000000000000000000000000000000000000000000000000006060830152606382019050919050565b6000612b44600b836137a2565b91507f5345434f4e445f574f52440000000000000000000000000000000000000000006000830152600b82019050919050565b6000612b84602c83613791565b91507f4552433732313a206f70657261746f7220717565727920666f72206e6f6e657860008301527f697374656e7420746f6b656e00000000000000000000000000000000000000006020830152604082019050919050565b6000612bea600d836137a2565b91507f3c2f746578743e3c2f7376673e000000000000000000000000000000000000006000830152600d82019050919050565b6000612c2a603883613791565b91507f4552433732313a20617070726f76652063616c6c6572206973206e6f74206f7760008301527f6e6572206e6f7220617070726f76656420666f7220616c6c00000000000000006020830152604082019050919050565b6000612c90602a83613791565b91507f4552433732313a2062616c616e636520717565727920666f7220746865207a6560008301527f726f2061646472657373000000000000000000000000000000000000000000006020830152604082019050919050565b6000612cf6602983613791565b91507f4552433732313a206f776e657220717565727920666f72206e6f6e657869737460008301527f656e7420746f6b656e00000000000000000000000000000000000000000000006020830152604082019050919050565b6000612d5c602e83613791565b91507f45524337323155524953746f726167653a2055524920736574206f66206e6f6e60008301527f6578697374656e7420746f6b656e0000000000000000000000000000000000006020830152604082019050919050565b6000612dc2601a83613791565b91507f4f6e6c79203530204e46547320617265206d696e7461626c652e0000000000006000830152602082019050919050565b6000612e026002836137a2565b91507f227d0000000000000000000000000000000000000000000000000000000000006000830152600282019050919050565b6000612e42602083613791565b91507f4552433732313a206d696e7420746f20746865207a65726f20616464726573736000830152602082019050919050565b6000612e82603183613791565b91507f45524337323155524953746f726167653a2055524920717565727920666f722060008301527f6e6f6e6578697374656e7420746f6b656e0000000000000000000000000000006020830152604082019050919050565b6000612ee8602c83613791565b91507f4552433732313a20617070726f76656420717565727920666f72206e6f6e657860008301527f697374656e7420746f6b656e00000000000000000000000000000000000000006020830152604082019050919050565b6000612f4e602983613791565b91507f4552433732313a207472616e73666572206f6620746f6b656e2074686174206960008301527f73206e6f74206f776e00000000000000000000000000000000000000000000006020830152604082019050919050565b6000612fb4602f83613791565b91507f4552433732314d657461646174613a2055524920717565727920666f72206e6f60008301527f6e6578697374656e7420746f6b656e00000000000000000000000000000000006020830152604082019050919050565b600061301a600a836137a2565b91507f7b226e616d65223a2022000000000000000000000000000000000000000000006000830152600a82019050919050565b600061305a602183613791565b91507f4552433732313a20617070726f76616c20746f2063757272656e74206f776e6560008301527f72000000000000000000000000000000000000000000000000000000000000006020830152604082019050919050565b60006130c0600a836137a2565b91507f46495253545f574f5244000000000000000000000000000000000000000000006000830152600a82019050919050565b6000613100601d836137a2565b91507f646174613a6170706c69636174696f6e2f6a736f6e3b6261736536342c0000006000830152601d82019050919050565b6000613140603183613791565b91507f4552433732313a207472616e736665722063616c6c6572206973206e6f74206f60008301527f776e6572206e6f7220617070726f7665640000000000000000000000000000006020830152604082019050919050565b60006131a66005836137a2565b91507f434f4c4f520000000000000000000000000000000000000000000000000000006000830152600582019050919050565b6131e28161392c565b82525050565b60006131f482846127e3565b915081905092915050565b600061320b82856127e3565b915061321782846127e3565b91508190509392505050565b600061322f82866127e3565b915061323b82856127e3565b915061324782846127e3565b9150819050949350505050565b60006132608287612814565b915061326c82866127e3565b91506132788285612814565b915061328482846127e3565b915061328f82612bdd565b915081905095945050505050565b60006132a882612893565b91506132b482846127e3565b915081905092915050565b60006132ca8261299f565b91506132d682846127e3565b915081905092915050565b60006132ec82612b37565b91506132f882846127e3565b915081905092915050565b600061330e8261300d565b915061331a82856127e3565b915061332582612a85565b915061333182846127e3565b915061333c82612df5565b91508190509392505050565b6000613353826130b3565b915061335f82846127e3565b915081905092915050565b6000613375826130f3565b915061338182846127e3565b915081905092915050565b600061339782613199565b91506133a382846127e3565b915081905092915050565b60006020820190506133c36000830184612753565b92915050565b60006080820190506133de6000830187612753565b6133eb6020830186612753565b6133f860408301856131d9565b818103606083015261340a8184612771565b905095945050505050565b600060408201905061342a6000830185612753565b61343760208301846131d9565b9392505050565b60006020820190506134536000830184612762565b92915050565b6000602082019050818103600083015261347381846127aa565b905092915050565b6000606082019050818103600083015261349581866127aa565b90506134a460208301856131d9565b6134b16040830184612753565b949350505050565b600060208201905081810360008301526134d2816128f9565b9050919050565b600060208201905081810360008301526134f28161295f565b9050919050565b60006020820190508181036000830152613512816129df565b9050919050565b6000602082019050818103600083015261353281612a45565b9050919050565b6000602082019050818103600083015261355281612b77565b9050919050565b6000602082019050818103600083015261357281612c1d565b9050919050565b6000602082019050818103600083015261359281612c83565b9050919050565b600060208201905081810360008301526135b281612ce9565b9050919050565b600060208201905081810360008301526135d281612d4f565b9050919050565b600060208201905081810360008301526135f281612db5565b9050919050565b6000602082019050818103600083015261361281612e35565b9050919050565b6000602082019050818103600083015261363281612e75565b9050919050565b6000602082019050818103600083015261365281612edb565b9050919050565b6000602082019050818103600083015261367281612f41565b9050919050565b6000602082019050818103600083015261369281612fa7565b9050919050565b600060208201905081810360008301526136b28161304d565b9050919050565b600060208201905081810360008301526136d281613133565b9050919050565b60006020820190506136ee60008301846131d9565b92915050565b6000604051905081810181811067ffffffffffffffff8211171561371b5761371a613ab1565b5b8060405250919050565b600067ffffffffffffffff8211156137405761373f613ab1565b5b601f19601f8301169050602081019050919050565b60008190508160005260206000209050919050565b600081519050919050565b600081519050919050565b600082825260208201905092915050565b600082825260208201905092915050565b600081905092915050565b60006137b88261392c565b91506137c38361392c565b9250827fffffffffffffffffffffffffffffffffffffffffffffffffffffffffffffffff038211156137f8576137f7613a24565b5b828201905092915050565b600061380e8261392c565b91506138198361392c565b92508261382957613828613a53565b5b828204905092915050565b600061383f8261392c565b915061384a8361392c565b9250817fffffffffffffffffffffffffffffffffffffffffffffffffffffffffffffffff048311821515161561388357613882613a24565b5b828202905092915050565b60006138998261392c565b91506138a48361392c565b9250828210156138b7576138b6613a24565b5b828203905092915050565b60006138cd8261390c565b9050919050565b60008115159050919050565b60007fffffffff0000000000000000000000000000000000000000000000000000000082169050919050565b600073ffffffffffffffffffffffffffffffffffffffff82169050919050565b6000819050919050565b82818337600083830152505050565b60005b83811015613963578082015181840152602081019050613948565b83811115613972576000848401525b50505050565b6000600282049050600182168061399057607f821691505b602082108114156139a4576139a3613a82565b5b50919050565b60006139b58261392c565b91507fffffffffffffffffffffffffffffffffffffffffffffffffffffffffffffffff8214156139e8576139e7613a24565b5b600182019050919050565b60006139fe8261392c565b9150613a098361392c565b925082613a1957613a18613a53565b5b828206905092915050565b7f4e487b7100000000000000000000000000000000000000000000000000000000600052601160045260246000fd5b7f4e487b7100000000000000000000000000000000000000000000000000000000600052601260045260246000fd5b7f4e487b7100000000000000000000000000000000000000000000000000000000600052602260045260246000fd5b7f4e487b7100000000000000000000000000000000000000000000000000000000600052604160045260246000fd5b6000601f19601f8301169050919050565b613afa816138c2565b8114613b0557600080fd5b50565b613b11816138d4565b8114613b1c57600080fd5b50565b613b28816138e0565b8114613b3357600080fd5b50565b613b3f8161392c565b8114613b4a57600080fd5b5056fe416e204e465420772f20494420257320686173206265656e206d696e74656420746f2025734142434445464748494a4b4c4d4e4f505152535455565758595a6162636465666768696a6b6c6d6e6f707172737475767778797a303132333435363738392b2fa26469706673582212209e5ef6c34c7abbd35a972df365b0786027c0a0426c9ff43a4c7d378972a058fb64736f6c634300080000333c73766720786d6c6e733d27687474703a2f2f7777772e77332e6f72672f323030302f73766727207072657365727665417370656374526174696f3d27784d696e594d696e206d656574272076696577426f783d273020302033353020333530273e3c7374796c653e2e62617365207b2066696c6c3a2077686974653b20666f6e742d66616d696c793a2073657269663b20666f6e742d73697a653a20323470783b207d3c2f7374796c653e3c726563742077696474683d273130302527206865696768743d2731303025272066696c6c3d27626c61636b27202f3e3c7465787420783d273530252720793d273530252720636c6173733d27626173652720646f6d696e616e742d626173656c696e653d276d6964646c652720746578742d616e63686f723d276d6964646c65273e3c73766720786d6c6e733d27687474703a2f2f7777772e77332e6f72672f323030302f73766727207072657365727665417370656374526174696f3d27784d696e594d696e206d656574272076696577426f783d273020302033353020333530273e3c7374796c653e2e62617365207b2066696c6c3a2077686974653b20666f6e742d66616d696c793a2073657269663b20666f6e742d73697a653a20323470783b207d3c2f7374796c653e3c726563742077696474683d273130302527206865696768743d2731303025272066696c6c3d27272f3e3c7465787420783d273530252720793d273530252720636c6173733d27626173652720646f6d696e616e742d626173656c696e653d276d6964646c652720746578742d616e63686f723d276d6964646c65273e",
  "linkReferences": {},
  "deployedLinkReferences": {}
}